:100000000C9462000C948A000C948A000C948A0070
:100010000C948A000C948A000C948A000C948A0038
:100020000C948A000C948A000C948A000C948A0028
:100030000C948A000C948A000C948A000C948A0018
:100040000C943F030C948A000C948A000C948A0050
:100050000C948A000C948A000C948A000C948A00F8
:100060000C948A000C948A000000000023002600F3
:10007000290000000000240027002A0000000000E2
:10008000250028002B0004040404040404040202D4
:100090000202020203030303030301020408102007
:1000A0004080010204081020010204081020000012
:1000B0000008000201000003040700000000000027
:1000C00000009E0411241FBECFEFD8E0DEBFCDBFDD
:1000D00011E0A0E0B1E0ECECF9E002C005900D9277
:1000E000A034B107D9F721E0A0E4B1E001C01D922E
:1000F000A136B207E1F710E0C2E6D0E004C02197D4
:10010000FE010E94DE04C136D107C9F70E948903AF
:100110000C94E4040C940000833081F028F48130C6
:1001200099F08230A9F008958730A9F08830C9F09D
:100130008430B1F4809180008F7D03C08091800075
:100140008F7780938000089584B58F7784BD08955C
:1001500084B58F7DFBCF8091B0008F778093B00006
:1001600008958091B0008F7DF9CF1F93CF93DF93D7
:10017000282F30E0F901E255FF4F8491F901E6564E
:10018000FF4FD491F901EA57FF4FC491CC23A9F056
:10019000162F81110E948C00EC2FF0E0EE0FFF1F54
:1001A000E458FF4FA591B4918FB7F894EC911111D9
:1001B00008C0D095DE23DC938FBFDF91CF911F91D4
:1001C0000895DE2BF8CFCF93DF9390E0FC01E65645
:1001D000FF4F24918A579F4FFC0184918823D1F0CF
:1001E00090E0880F991FFC01EE58FF4FA591B49144
:1001F000FC01E458FF4FC591D491623071F49FB770
:10020000F8943C91822F809583238C93E8812E2B48
:1002100028839FBFDF91CF9108958FB7F894EC9119
:100220002E2B2C938FBFF6CF3FB7F89480914501CA
:1002300090914601A0914701B091480126B5A89B35
:1002400005C02F3F19F00196A11DB11D3FBFBA2F68
:10025000A92F982F8827BC01CD01620F711D811D28
:10026000911D42E0660F771F881F991F4A95D1F7AD
:1002700008958F929F92AF92BF92CF92DF92EF92AA
:10028000FF924B015C010E9414016B017C010E94F2
:1002900014016C197D098E099F09683E7340810520
:1002A0009105A8F321E0821A9108A108B10888EE0F
:1002B000C80E83E0D81EE11CF11C81149104A10436
:1002C000B10429F7FF90EF90DF90CF90BF90AF90EF
:1002D0009F908F900895AF92BF92CF92DF92EF924E
:1002E000FF920F931F93CF93DF936C017B018B01E0
:1002F000040F151FEB015E01AE18BF08C017D10730
:1003000059F06991D601ED91FC910190F081E02DB9
:10031000C6010995892B79F7C501DF91CF911F910E
:100320000F91FF90EF90DF90CF90BF90AF90089526
:10033000089590E080E008958F929F92AF92BF92CF
:100340000F931F93CF93DF93CDB7DEB7A1970FB66F
:10035000F894DEBF0FBECDBF19A2423008F44AE0C8
:100360008E010F5D1F4F842E912CB12CA12CA50165
:1003700094010E94BC04E62FB901CA01EA3044F599
:10038000E05DD801EE938D01232B242B252B79F7EB
:1003900090E080E0109769F0FD0101900020E9F7FE
:1003A0003197AF014A1B5B0BBD0189E491E00E94CC
:1003B0006B01A1960FB6F894DEBF0FBECDBFDF91E3
:1003C000CF911F910F91BF90AF909F908F90089504
:1003D000E95CD7CFFC0101900020E9F73197AF012C
:1003E000481B590BBC0189E491E00C946B01CF933D
:1003F000DF93EC0160E08E810E94B50061E08E81A8
:100400000E94B50060E08E810E94B5008BE891E00B
:100410000197F1F7DF91CF910895CF92DF92EF929C
:10042000FF920F931F93CF93DF936C017C0187E0C2
:10043000E80EF11CD0E0C0E0062F10E0B8010C2E51
:1004400002C0759567950A94E2F76170F701819192
:100450007F010E94B5002196C430D10579F7C6010D
:10046000DF91CF911F910F91FF90EF90DF90CF9090
:100470000C94F701CF92DF92EF92FF920F931F93AC
:10048000CF93DF93EC01F62E642F8C810E94B50090
:100490008D818F3F19F060E00E94B5000F2D10E0B4
:1004A0008F8584FF25C06E0187E0C80ED11CF12C1A
:1004B000E12CB8010E2C02C0759567950A94E2F7FD
:1004C0006170F60181916F010E94B500FFEFEF1A94
:1004D000FF0A88E0E816F10461F7CE01DF91CF91C1
:1004E0001F910F91FF90EF90DF90CF900C94F70148
:1004F000B80184E0759567958A95E1F7CE010E9471
:100500000D026F2DCE01DF91CF911F910F91FF90C2
:10051000EF90DF90CF900C940D0240E0682F89E4BB
:1005200091E00C943A02CF93DF93823029F49091BA
:10053000580198609093580180935C0110925D017E
:1005400080E480935E0180E180935F0180E5809389
:10055000600161E080914D010E94E30080914E01B5
:100560008F3F19F061E00E94E30061E080914F014C
:100570000E94E300C9E4D1E09E01295431408091FA
:10058000580184FD0BC084E090E0219628173907BC
:1005900044F461E08E810E94E300EECF88E090E0B9
:1005A000F4CF8BE39DE00197F1F760E080914D017E
:1005B0000E94B50060E080914F010E94B5008091DB
:1005C0004E018F3F19F060E00E94B5008091580104
:1005D00084FD39C063E089E491E00E940D02CBE420
:1005E000D6E4CE010197F1F763E089E491E00E943F
:1005F0000D022197F1F763E089E491E00E940D027A
:1006000083E592E00197F1F762E089E491E00E94CE
:100610000D028091580180620E948D0284E08093D7
:1006200059018CE00E948D0281E00E948D028BE3D3
:100630009FE10197F1F782E080935A0186E0DF9114
:10064000CF910C948D0280620E948D028BE496E41F
:100650000197F1F78091580180620E948D0283E535
:1006600092E00197F1F78091580180620E948D021B
:10067000D0CF41E00E943A0281E090E008951F92BD
:100680000F920FB60F9211242F933F938F939F9346
:10069000AF93BF938091410190914201A09143019A
:1006A000B09144013091400123E0230F2D3758F5DC
:1006B0000196A11DB11D20934001809341019093AB
:1006C0004201A0934301B093440180914501909170
:1006D0004601A0914701B09148010196A11DB11DAD
:1006E0008093450190934601A0934701B093480140
:1006F000BF91AF919F918F913F912F910F900FBE1E
:100700000F901F90189526E8230F0296A11DB11D8A
:10071000D2CF789484B5826084BD84B5816084BD75
:1007200085B5826085BD85B5816085BD80916E008F
:10073000816080936E0010928100809181008260C0
:1007400080938100809181008160809381008091FD
:1007500080008160809380008091B10084608093EC
:10076000B1008091B00081608093B00080917A00E8
:10077000846080937A0080917A00826080937A000E
:1007800080917A00816080937A0080917A008068FD
:1007900080937A001092C10062E082E00E94E30040
:1007A00061E088E00E94E30061E089E00E94E300EC
:1007B00061E08DE00E94E30082E00E9493028CE001
:1007C00091E00E94EA0168EE73E080E090E00E9410
:1007D0003901C0E490EB292E90E0392E2CE9E22E6D
:1007E00020E0F22E38E8C32E30E0D32E4BE3A42EC7
:1007F0004FE1B42E50E0852E50E0952EC0937C0042
:1008000080917A00806480937A0080917A0086FDDE
:10081000FCCF4090780050907900F1018491F7016D
:100820001491F6010491002309F475C081110E940E
:100830008C00E02FF0E0EE0FFF1FE859FF4FA5916D
:10084000B4918C91182391E080E009F490E0092F95
:10085000182F81E00E948D02C5010197F1F7E1E0B8
:1008600080915C018111E0E0E195F0E0E75BFE4FF3
:10087000848980680E948D02FCE24F16F1E05F06D9
:100880001CF0012B09F04AC089E191E00E94EA01C5
:1008900061E08DE00E94B50061E088E00E94B50053
:1008A00060E089E00E94B500E0915C01E23008F070
:1008B00043C0E150F0E0E75BFE4F848980680E940E
:1008C0008D0288E391E00E94EA01052C000C660885
:1008D00077084AE0C301B20177FE0EC041E06DE245
:1008E00089E491E00E943A0266277727CB016419D8
:1008F0007509860997094AE00E949C0164EF71E03E
:1009000080E090E00E9439018114910409F476CFCF
:100910000E94000073CF10E000E09BCF89E291E0DD
:100920000E94EA0160E08DE00E94B50060E088E08E
:100930000E94B50061E0B5CFE1E0BCCFE9E4F1E0B1
:100940001382128284E091E0918380838CE084831F
:100950008FEF85838BE0868385E0878384E08087C3
:1009600083E0818786E08287138614861586168643
:10097000178681E00C949302A1E21A2EAA1BBB1BDE
:10098000FD010DC0AA1FBB1FEE1FFF1FA217B3075B
:10099000E407F50720F0A21BB30BE40BF50B661F71
:1009A000771F881F991F1A9469F760957095809535
:1009B00090959B01AC01BD01CF010895EE0FFF1F83
:0C09C0000590F491E02D0994F894FFCF0D
:1009CC000000000039036B0199019801537973748D
:1009DC00656D205265616479005374617475733A66
:1009EC002052455452414354005374617475733A08
:1009FC0020455854454E44004C696768743A2000B1
:00000001FF
